{
  "contractName": "SupplyChain",
  "abi": [
    {
      "constant": true,
      "inputs": [],
      "name": "nextId",
      "outputs": [
        {
          "name": "",
          "type": "uint256"
        }
      ],
      "payable": false,
      "stateMutability": "view",
      "type": "function"
    },
    {
      "constant": true,
      "inputs": [
        {
          "name": "",
          "type": "uint256"
        }
      ],
      "name": "items",
      "outputs": [
        {
          "name": "Id",
          "type": "uint256"
        },
        {
          "name": "name",
          "type": "string"
        },
        {
          "name": "price",
          "type": "uint256"
        },
        {
          "name": "status",
          "type": "uint8"
        },
        {
          "name": "owner",
          "type": "address"
        }
      ],
      "payable": false,
      "stateMutability": "view",
      "type": "function"
    },
    {
      "constant": false,
      "inputs": [
        {
          "name": "name",
          "type": "string"
        },
        {
          "name": "price",
          "type": "uint256"
        }
      ],
      "name": "addItem",
      "outputs": [],
      "payable": false,
      "stateMutability": "nonpayable",
      "type": "function"
    },
    {
      "constant": true,
      "inputs": [
        {
          "name": "id",
          "type": "uint256"
        }
      ],
      "name": "queryItem",
      "outputs": [
        {
          "name": "",
          "type": "string"
        },
        {
          "name": "",
          "type": "uint256"
        },
        {
          "name": "",
          "type": "string"
        },
        {
          "name": "",
          "type": "address"
        }
      ],
      "payable": false,
      "stateMutability": "view",
      "type": "function"
    },
    {
      "constant": false,
      "inputs": [
        {
          "name": "id",
          "type": "uint256"
        }
      ],
      "name": "buyItem",
      "outputs": [
        {
          "name": "",
          "type": "string"
        }
      ],
      "payable": false,
      "stateMutability": "nonpayable",
      "type": "function"
    },
    {
      "constant": false,
      "inputs": [
        {
          "name": "id",
          "type": "uint256"
        },
        {
          "name": "_address",
          "type": "string"
        }
      ],
      "name": "shipItem",
      "outputs": [
        {
          "name": "",
          "type": "string"
        }
      ],
      "payable": false,
      "stateMutability": "nonpayable",
      "type": "function"
    },
    {
      "constant": false,
      "inputs": [
        {
          "name": "id",
          "type": "uint256"
        }
      ],
      "name": "receiveItem",
      "outputs": [
        {
          "name": "",
          "type": "string"
        }
      ],
      "payable": false,
      "stateMutability": "nonpayable",
      "type": "function"
    }
  ],
  "bytecode": "0x6080604052600060015534801561001557600080fd5b50611730806100256000396000f300608060405260043610610083576000357c0100000000000000000000000000000000000000000000000000000000900463ffffffff1680634d25ce471461008857806361b8ce8c1461017457806362d6bbdf1461019f5780637bddf1f814610212578063a26be9991461035e578063bfb231d214610404578063e7fb74c714610500575b600080fd5b34801561009457600080fd5b506100f960048036038101908080359060200190929190803590602001908201803590602001908080601f01602080910402602001604051908101604052809392919081815260200183838082843782019150505050505091929192905050506105a6565b6040518080602001828103825283818151815260200191508051906020019080838360005b8381101561013957808201518184015260208101905061011e565b50505050905090810190601f1680156101665780820380516001836020036101000a031916815260200191505b509250505060405180910390f35b34801561018057600080fd5b50610189610852565b6040518082815260200191505060405180910390f35b3480156101ab57600080fd5b50610210600480360381019080803590602001908201803590602001908080601f016020809104026020016040519081016040528093929190818152602001838380828437820191505050505050919291929080359060200190929190505050610858565b005b34801561021e57600080fd5b5061023d6004803603810190808035906020019092919050505061098b565b6040518080602001858152602001806020018473ffffffffffffffffffffffffffffffffffffffff1673ffffffffffffffffffffffffffffffffffffffff168152602001838103835287818151815260200191508051906020019080838360005b838110156102b957808201518184015260208101905061029e565b50505050905090810190601f1680156102e65780820380516001836020036101000a031916815260200191505b50838103825285818151815260200191508051906020019080838360005b8381101561031f578082015181840152602081019050610304565b50505050905090810190601f16801561034c5780820380516001836020036101000a031916815260200191505b50965050505050505060405180910390f35b34801561036a57600080fd5b5061038960048036038101908080359060200190929190505050610b75565b6040518080602001828103825283818151815260200191508051906020019080838360005b838110156103c95780820151818401526020810190506103ae565b50505050905090810190601f1680156103f65780820380516001836020036101000a031916815260200191505b509250505060405180910390f35b34801561041057600080fd5b5061042f60048036038101908080359060200190929190505050610e56565b604051808681526020018060200185815260200184600481111561044f57fe5b60ff1681526020018373ffffffffffffffffffffffffffffffffffffffff1673ffffffffffffffffffffffffffffffffffffffff168152602001828103825286818151815260200191508051906020019080838360005b838110156104c15780820151818401526020810190506104a6565b50505050905090810190601f1680156104ee5780820380516001836020036101000a031916815260200191505b50965050505050505060405180910390f35b34801561050c57600080fd5b5061052b60048036038101908080359060200190929190505050610f60565b6040518080602001828103825283818151815260200191508051906020019080838360005b8381101561056b578082015181840152602081019050610550565b50505050905090810190601f1680156105985780820380516001836020036101000a031916815260200191505b509250505060405180910390f35b60606000806105b48561127a565b9150600082121561062357606060405190810160405280602581526020017f546865206974656d207769746820676976656e20696420646f65736e2774206581526020017f7869737421000000000000000000000000000000000000000000000000000000815250925061084a565b8190506002600481111561063357fe5b60008281548110151561064257fe5b906000526020600020906004020160030160009054906101000a900460ff16600481111561066c57fe5b1415156106d757606060405190810160405280604081526020017f546865206974656d20776974682074686520676976656e20696420697320736f81526020017f6c642c20736f20686f772063616e20776520736869702069742e204c4f4c7a21815250925061084a565b60036000828154811015156106e857fe5b906000526020600020906004020160030160006101000a81548160ff0219169083600481111561071457fe5b02179055506108476040805190810160405280600881526020017f546865206974656d00000000000000000000000000000000000000000000000081525060008381548110151561076157fe5b90600052602060002090600402016001018054600181600116156101000203166002900480601f0160208091040260200160405190810160405280929190818152602001828054600181600116156101000203166002900480156108065780601f106107db57610100808354040283529160200191610806565b820191906000526020600020905b8154815290600101906020018083116107e957829003601f168201915b50505050506040805190810160405280601b81526020017f69732073686970706564207375636365737366756c6c7920746f200000000000815250876112f6565b92505b505092915050565b60015481565b600060a06040519081016040528060015481526020018481526020018381526020016000600481111561088757fe5b81526020013373ffffffffffffffffffffffffffffffffffffffff16815250908060018154018082558091505090600182039060005260206000209060040201600090919290919091506000820151816000015560208201518160010190805190602001906108f792919061165f565b506040820151816002015560608201518160030160006101000a81548160ff0219169083600481111561092657fe5b021790555060808201518160030160016101000a81548173ffffffffffffffffffffffffffffffffffffffff021916908373ffffffffffffffffffffffffffffffffffffffff1602179055505050506001600081548092919060010191905055505050565b606060006060600080600090505b600080549050811015610b3c576000818154811015156109b557fe5b906000526020600020906004020160000154861415610b2f576000818154811015156109dd57fe5b90600052602060002090600402016001016000828154811015156109fd57fe5b906000526020600020906004020160020154610a45600084815481101515610a2157fe5b906000526020600020906004020160030160009054906101000a900460ff1661146e565b600084815481101515610a5457fe5b906000526020600020906004020160030160019054906101000a900473ffffffffffffffffffffffffffffffffffffffff16838054600181600116156101000203166002900480601f016020809104026020016040519081016040528092919081815260200182805460018160011615610100020316600290048015610b1b5780601f10610af057610100808354040283529160200191610b1b565b820191906000526020600020905b815481529060010190602001808311610afe57829003601f168201915b505050505093509450945094509450610b6d565b8080600101915050610999565b6000610b48600461146e565b6000602060405190810160405280600081525092919082925080905094509450945094505b509193509193565b6060600080610b838461127a565b91506000821215610bf257606060405190810160405280602581526020017f546865206974656d207769746820676976656e20696420646f65736e2774206581526020017f78697374210000000000000000000000000000000000000000000000000000008152509250610e4f565b81905060036004811115610c0257fe5b600082815481101515610c1157fe5b906000526020600020906004020160030160009054906101000a900460ff166004811115610c3b57fe5b141515610ccc57608060405190810160405280604f81526020017f546865206974656d20776974682074686520676976656e206964206973206e6f81526020017f74207368697070656420686f772063616e206920726563656976652069742e2081526020017f6b696e646c7920736869702069742100000000000000000000000000000000008152509250610e4f565b6001600082815481101515610cdd57fe5b906000526020600020906004020160030160006101000a81548160ff02191690836004811115610d0957fe5b0217905550610e4c6040805190810160405280600881526020017f546865206974656d000000000000000000000000000000000000000000000000815250600083815481101515610d5657fe5b90600052602060002090600402016001018054600181600116156101000203166002900480601f016020809104026020016040519081016040528092919081815260200182805460018160011615610100020316600290048015610dfb5780601f10610dd057610100808354040283529160200191610dfb565b820191906000526020600020905b815481529060010190602001808311610dde57829003601f168201915b50505050506040805190810160405280601881526020017f6973207265636569766564207375636365737366756c6c79000000000000000081525060206040519081016040528060008152506112f6565b92505b5050919050565b600081815481101515610e6557fe5b9060005260206000209060040201600091509050806000015490806001018054600181600116156101000203166002900480601f016020809104026020016040519081016040528092919081815260200182805460018160011615610100020316600290048015610f175780601f10610eec57610100808354040283529160200191610f17565b820191906000526020600020905b815481529060010190602001808311610efa57829003601f168201915b5050505050908060020154908060030160009054906101000a900460ff16908060030160019054906101000a900473ffffffffffffffffffffffffffffffffffffffff16905085565b6060600080610f6e8461127a565b91506000821215610fdd57606060405190810160405280602581526020017f546865206974656d207769746820676976656e20696420646f65736e2774206581526020017f78697374210000000000000000000000000000000000000000000000000000008152509250611273565b81905060006004811115610fed57fe5b600082815481101515610ffc57fe5b906000526020600020906004020160030160009054906101000a900460ff16600481111561102657fe5b14151561109157606060405190810160405280602b81526020017f546865206974656d20776974682074686520676976656e206964206973206e6f81526020017f7420666f722073616c65210000000000000000000000000000000000000000008152509250611273565b336000828154811015156110a157fe5b906000526020600020906004020160030160016101000a81548173ffffffffffffffffffffffffffffffffffffffff021916908373ffffffffffffffffffffffffffffffffffffffff160217905550600260008281548110151561110157fe5b906000526020600020906004020160030160006101000a81548160ff0219169083600481111561112d57fe5b02179055506112706040805190810160405280600981526020017f546865206974656d20000000000000000000000000000000000000000000000081525060008381548110151561117a57fe5b90600052602060002090600402016001018054600181600116156101000203166002900480601f01602080910402602001604051908101604052809291908181526020018280546001816001161561010002031660029004801561121f5780601f106111f45761010080835404028352916020019161121f565b820191906000526020600020905b81548152906001019060200180831161120257829003601f168201915b50505050506040805190810160405280601781526020017f206973207375636365737366756c6c7920626f7567687400000000000000000081525060206040519081016040528060008152506112f6565b92505b5050919050565b600080600090505b6000805490508110156112cc5760008181548110151561129e57fe5b9060005260206000209060040201600001548314156112bf578091506112f0565b8080600101915050611282565b7fffffffffffffffffffffffffffffffffffffffffffffffffffffffffffffffff91505b50919050565b6060848484846040516020018085805190602001908083835b602083101515611334578051825260208201915060208101905060208303925061130f565b6001836020036101000a03801982511681845116808217855250505050505090500184805190602001908083835b6020831015156113875780518252602082019150602081019050602083039250611362565b6001836020036101000a03801982511681845116808217855250505050505090500183805190602001908083835b6020831015156113da57805182526020820191506020810190506020830392506113b5565b6001836020036101000a03801982511681845116808217855250505050505090500182805190602001908083835b60208310151561142d5780518252602082019150602081019050602083039250611408565b6001836020036101000a0380198251168184511680821785525050505050509050019450505050506040516020818303038152906040529050949350505050565b6060600482600481111561147e57fe5b60ff161115151561148e57600080fd5b81600481111561149a57fe5b600060048111156114a757fe5b14156114ea576040805190810160405280600881526020017f464f522053414c45000000000000000000000000000000000000000000000000815250905061165a565b8160048111156114f657fe5b6001600481111561150357fe5b1415611546576040805190810160405280600c81526020017f4e4f5420464f522053414c450000000000000000000000000000000000000000815250905061165a565b81600481111561155257fe5b6002600481111561155f57fe5b14156115a2576040805190810160405280600481526020017f534f4c4400000000000000000000000000000000000000000000000000000000815250905061165a565b8160048111156115ae57fe5b600360048111156115bb57fe5b14156115fe576040805190810160405280600781526020017f5348495050454400000000000000000000000000000000000000000000000000815250905061165a565b81600481111561160a57fe5b60048081111561161657fe5b1415611659576040805190810160405280600981526020017f4e4f5420464f554e440000000000000000000000000000000000000000000000815250905061165a565b5b919050565b828054600181600116156101000203166002900490600052602060002090601f016020900481019282601f106116a057805160ff19168380011785556116ce565b828001600101855582156116ce579182015b828111156116cd5782518255916020019190600101906116b2565b5b5090506116db91906116df565b5090565b61170191905b808211156116fd5760008160009055506001016116e5565b5090565b905600a165627a7a72305820d3db8a7591a9758f454ef54b066ac814e8fc4a3554f595e6b261899067fa6aa60029",
  "source": "pragma solidity ^0.4.0;\n\n\ncontract SupplyChain {\n\n    enum State { FORSALE, NOTFORSALE, SOLD, SHIPPED, NOTFOUND }\n\n\n    struct Item {\n        uint Id;\n        string name;\n        uint price;\n        State status;\n        address owner;\n    }\n\n    Item[] public items;\n\n\n    uint public nextId = 0;\n\n    // Function to add new item\n\n    function addItem(string memory name, uint price) public {\n        items.push(Item(nextId, name, price, State.FORSALE, msg.sender));\n        nextId++;\n    }\n\n\n    // Given the id of the item return it's all attributes\n    function queryItem(uint id) public view returns (string memory, uint, string memory, address) {\n        for(uint i=0; i < items.length; i++) {\n            if(id == items[i].Id)\n            {\n                return (items[i].name, items[i].price, getEnumStringByValue(items[i].status), items[i].owner);\n            }\n        }\n        return (\"\", 0, getEnumStringByValue(State.NOTFOUND),  0x0);\n    }\n    \n    function buyItem(uint id) public returns (string memory) {\n        int found =  findItem(id);\n        if(found < 0)\n        {\n            return \"The item with given id doesn't exist!\";\n        }\n        uint ufound = uint(found);\n        if(items[ufound].status != State.FORSALE)\n        {\n         return \"The item with the given id is not for sale!\";   \n        }\n        // This the way we can get the balance of account in latest truffle version\n        // balance = await web3.eth.getBalance(msg.sender); \n        //  if (balance < items[ufound].price)\n        //  {\n        //      return \"Insufficient balance to purchase the product. Sorry!\";\n        //  }\n\n\n        items[ufound].owner = msg.sender;\n        items[ufound].status = State.SOLD;\n        return strCat(\"The item \", items[ufound].name, \" is successfully bought\", \"\");\n    }\n\n\n    function shipItem(uint id, string memory _address) public returns (string memory) {\n        int found =  findItem(id);\n        if(found < 0)\n        {\n            return \"The item with given id doesn't exist!\";\n        }\n        uint ufound = uint(found);\n        if(items[ufound].status != State.SOLD)\n        {\n         return \"The item with the given id is sold, so how can we ship it. LOLz!\";   \n        }\n        items[ufound].status = State.SHIPPED;\n\n        return strCat(\"The item\", items[ufound].name, \"is shipped successfully to \", _address);\n    }\n\n\n    function receiveItem(uint id) public returns (string memory) {\n        int found =  findItem(id);\n        if(found < 0)\n        {\n            return \"The item with given id doesn't exist!\";\n        }\n        uint ufound = uint(found);\n        if(items[ufound].status != State.SHIPPED)\n        {\n         return \"The item with the given id is not shipped how can i receive it. kindly ship it!\";   \n        }\n\n        items[ufound].status = State.NOTFORSALE;\n        return strCat(\"The item\", items[ufound].name, \"is received successfully\", \"\");\n    }\n\n\n    function findItem(uint id) internal view returns (int) {\n         for(uint i=0; i < items.length; i++) {\n            if(id == items[i].Id)\n            {\n                return int(i);\n            }\n        }\n        return -1;\n    }\n\n    \n    function getEnumStringByValue(State _state) internal pure returns (string memory) {\n        \n     // Error handling for input\n     require(uint8(_state) <= 4);\n        \n     // Loop through possible options\n     if (State.FORSALE == _state) return \"FOR SALE\";\n     if (State.NOTFORSALE == _state) return \"NOT FOR SALE\";\n     if (State.SOLD == _state) return \"SOLD\";\n     if (State.SHIPPED == _state) return \"SHIPPED\";\n     if (State.NOTFOUND == _state) return \"NOT FOUND\";\n    }\n\n\n    function strCat(string a, string b, string c, string d) internal pure returns (string) {\n        return string(abi.encodePacked(a, b, c, d));\n    }   \n\n}",
  "sourcePath": "/home/daud/semester_project/SupplyChain/contracts/SupplyChain.sol",
  "compiler": {
    "name": "solc",
    "version": "0.4.24+commit.e67f0147.Emscripten.clang"
  },
  "schemaVersion": "2.0.1",
  "updatedAt": "2021-06-13T16:42:10.561Z"
}